{
  "_format": "hh-sol-artifact-1",
  "contractName": "EscrowPayments",
  "sourceName": "contracts/EscrowPayments.sol",
  "abi": [
    {
      "inputs": [],
      "stateMutability": "nonpayable",
      "type": "constructor"
    },
    {
      "anonymous": false,
      "inputs": [
        {
          "indexed": true,
          "internalType": "uint256",
          "name": "appointmentId",
          "type": "uint256"
        },
        {
          "indexed": true,
          "internalType": "address",
          "name": "patient",
          "type": "address"
        },
        {
          "indexed": true,
          "internalType": "address",
          "name": "doctor",
          "type": "address"
        },
        {
          "indexed": false,
          "internalType": "uint256",
          "name": "amount",
          "type": "uint256"
        }
      ],
      "name": "AppointmentBooked",
      "type": "event"
    },
    {
      "anonymous": false,
      "inputs": [
        {
          "indexed": true,
          "internalType": "uint256",
          "name": "appointmentId",
          "type": "uint256"
        }
      ],
      "name": "AppointmentCancelledByDoctor",
      "type": "event"
    },
    {
      "anonymous": false,
      "inputs": [
        {
          "indexed": true,
          "internalType": "uint256",
          "name": "appointmentId",
          "type": "uint256"
        }
      ],
      "name": "AppointmentCancelledByPatient",
      "type": "event"
    },
    {
      "anonymous": false,
      "inputs": [
        {
          "indexed": true,
          "internalType": "uint256",
          "name": "appointmentId",
          "type": "uint256"
        }
      ],
      "name": "AppointmentCompleted",
      "type": "event"
    },
    {
      "anonymous": false,
      "inputs": [
        {
          "indexed": true,
          "internalType": "uint256",
          "name": "appointmentId",
          "type": "uint256"
        }
      ],
      "name": "AppointmentConfirmed",
      "type": "event"
    },
    {
      "anonymous": false,
      "inputs": [
        {
          "indexed": true,
          "internalType": "uint256",
          "name": "appointmentId",
          "type": "uint256"
        }
      ],
      "name": "AppointmentDisputed",
      "type": "event"
    },
    {
      "anonymous": false,
      "inputs": [
        {
          "indexed": true,
          "internalType": "uint256",
          "name": "appointmentId",
          "type": "uint256"
        },
        {
          "indexed": true,
          "internalType": "address",
          "name": "to",
          "type": "address"
        },
        {
          "indexed": false,
          "internalType": "uint256",
          "name": "amount",
          "type": "uint256"
        }
      ],
      "name": "FundsReleased",
      "type": "event"
    },
    {
      "inputs": [],
      "name": "admin",
      "outputs": [
        {
          "internalType": "address",
          "name": "",
          "type": "address"
        }
      ],
      "stateMutability": "view",
      "type": "function"
    },
    {
      "inputs": [
        {
          "internalType": "uint256",
          "name": "",
          "type": "uint256"
        }
      ],
      "name": "appointments",
      "outputs": [
        {
          "internalType": "address",
          "name": "patient",
          "type": "address"
        },
        {
          "internalType": "address",
          "name": "doctor",
          "type": "address"
        },
        {
          "internalType": "uint256",
          "name": "amount",
          "type": "uint256"
        },
        {
          "internalType": "enum EscrowPayments.AppointmentStatus",
          "name": "status",
          "type": "uint8"
        }
      ],
      "stateMutability": "view",
      "type": "function"
    },
    {
      "inputs": [
        {
          "internalType": "address",
          "name": "doctor",
          "type": "address"
        }
      ],
      "name": "bookAppointment",
      "outputs": [
        {
          "internalType": "uint256",
          "name": "",
          "type": "uint256"
        }
      ],
      "stateMutability": "payable",
      "type": "function"
    },
    {
      "inputs": [
        {
          "internalType": "uint256",
          "name": "appointmentId",
          "type": "uint256"
        }
      ],
      "name": "cancelByDoctor",
      "outputs": [],
      "stateMutability": "nonpayable",
      "type": "function"
    },
    {
      "inputs": [
        {
          "internalType": "uint256",
          "name": "appointmentId",
          "type": "uint256"
        }
      ],
      "name": "cancelByPatient",
      "outputs": [],
      "stateMutability": "nonpayable",
      "type": "function"
    },
    {
      "inputs": [
        {
          "internalType": "uint256",
          "name": "appointmentId",
          "type": "uint256"
        }
      ],
      "name": "completeAppointment",
      "outputs": [],
      "stateMutability": "nonpayable",
      "type": "function"
    },
    {
      "inputs": [
        {
          "internalType": "uint256",
          "name": "appointmentId",
          "type": "uint256"
        }
      ],
      "name": "confirmAppointment",
      "outputs": [],
      "stateMutability": "nonpayable",
      "type": "function"
    },
    {
      "inputs": [
        {
          "internalType": "uint256",
          "name": "appointmentId",
          "type": "uint256"
        }
      ],
      "name": "disputeAppointment",
      "outputs": [],
      "stateMutability": "nonpayable",
      "type": "function"
    },
    {
      "inputs": [
        {
          "internalType": "address",
          "name": "patient",
          "type": "address"
        }
      ],
      "name": "getPatientAppointments",
      "outputs": [
        {
          "internalType": "uint256[]",
          "name": "",
          "type": "uint256[]"
        }
      ],
      "stateMutability": "view",
      "type": "function"
    },
    {
      "inputs": [],
      "name": "nextAppointmentId",
      "outputs": [
        {
          "internalType": "uint256",
          "name": "",
          "type": "uint256"
        }
      ],
      "stateMutability": "view",
      "type": "function"
    },
    {
      "inputs": [
        {
          "internalType": "uint256",
          "name": "appointmentId",
          "type": "uint256"
        },
        {
          "internalType": "address payable",
          "name": "winner",
          "type": "address"
        }
      ],
      "name": "resolveDispute",
      "outputs": [],
      "stateMutability": "nonpayable",
      "type": "function"
    }
  ],
  "bytecode": "0x6080604052348015600f57600080fd5b50600080546001600160a01b03191633179055610fc8806100316000396000f3fe60806040526004361061009c5760003560e01c806368f4e9631161006457806368f4e9631461019057806389dcc4a2146101b15780638e366c74146101c7578063b2dde612146101f4578063cefead9514610214578063f851a4401461023457600080fd5b80630ca25e3a146100a15780630e33599d146100c357806312dc9013146100e35780632c6e49e3146101505780634095b11714610170575b600080fd5b3480156100ad57600080fd5b506100c16100bc366004610dcd565b61026c565b005b3480156100cf57600080fd5b506100c16100de366004610dfe565b6103e7565b3480156100ef57600080fd5b506101376100fe366004610dcd565b600160208190526000918252604090912080549181015460028201546003909201546001600160a01b0393841693909116919060ff1684565b6040516101479493929190610e44565b60405180910390f35b34801561015c57600080fd5b506100c161016b366004610dcd565b610518565b34801561017c57600080fd5b506100c161018b366004610dcd565b610683565b6101a361019e366004610e90565b610834565b604051908152602001610147565b3480156101bd57600080fd5b506101a360025481565b3480156101d357600080fd5b506101e76101e2366004610e90565b610a2b565b6040516101479190610eb4565b34801561020057600080fd5b506100c161020f366004610dcd565b610be5565b34801561022057600080fd5b506100c161022f366004610dcd565b610ceb565b34801561024057600080fd5b50600054610254906001600160a01b031681565b6040516001600160a01b039091168152602001610147565b600081815260016020526040902080546001600160a01b031633146102d85760405162461bcd60e51b815260206004820152601760248201527f4f6e6c792070617469656e742063616e2063616e63656c00000000000000000060448201526064015b60405180910390fd5b6000600382015460ff1660058111156102f3576102f3610e2e565b148061031757506001600382015460ff16600581111561031557610315610e2e565b145b6103335760405162461bcd60e51b81526004016102cf90610ef7565b6003818101805460ff19169091179055805460028201546040516001600160a01b03909216916108fc82150291906000818181858888f19350505050158015610380573d6000803e3d6000fd5b5060405182907fc862aa5ba306f7d1f4f9a45e614fc17982f1a31c437c90f7667f7bd4c16bb59a90600090a2805460028201546040519081526001600160a01b03909116908390600080516020610f73833981519152906020015b60405180910390a35050565b6000546001600160a01b0316331461042e5760405162461bcd60e51b815260206004820152600a60248201526927b7363c9020b236b4b760b11b60448201526064016102cf565b60008281526001602052604090206005600382015460ff16600581111561045757610457610e2e565b146104935760405162461bcd60e51b815260206004820152600c60248201526b139bdd08191a5cdc1d5d195960a21b60448201526064016102cf565b60038101805460ff191660029081179091558101546040516001600160a01b038416916108fc811502916000818181858888f193505050501580156104dc573d6000803e3d6000fd5b50816001600160a01b031683600080516020610f73833981519152836002015460405161050b91815260200190565b60405180910390a3505050565b6000818152600160208190526040909120908101546001600160a01b0316331461057d5760405162461bcd60e51b815260206004820152601660248201527513db9b1e48191bd8dd1bdc8818d85b8818d85b98d95b60521b60448201526064016102cf565b6000600382015460ff16600581111561059857610598610e2e565b14806105bc57506001600382015460ff1660058111156105ba576105ba610e2e565b145b6105d85760405162461bcd60e51b81526004016102cf90610ef7565b60038101805460ff19166004179055805460028201546040516001600160a01b03909216916108fc82150291906000818181858888f19350505050158015610624573d6000803e3d6000fd5b5060405182907fd5d2d811be4cda232558d726e212de209902070a12d42080a7248ce9c7147bf390600090a2805460028201546040519081526001600160a01b03909116908390600080516020610f73833981519152906020016103db565b600081815260016020526040902080546001600160a01b03163314806106b5575060018101546001600160a01b031633145b61070d5760405162461bcd60e51b815260206004820152602360248201527f4f6e6c792070617469656e74206f7220646f63746f722063616e20636f6d706c60448201526265746560e81b60648201526084016102cf565b6001600382015460ff16600581111561072857610728610e2e565b146107815760405162461bcd60e51b815260206004820152602360248201527f4170706f696e746d656e74206d75737420626520636f6e6669726d65642066696044820152621c9cdd60ea1b60648201526084016102cf565b60038101805460ff191660029081179091556001820154908201546040516001600160a01b03909216916108fc82150291906000818181858888f193505050501580156107d2573d6000803e3d6000fd5b5060405182907f96f7f7d72a3fe4b137949271ceab16ab2121be2faeda69bb82794730701668ca90600090a2600181015460028201546040519081526001600160a01b03909116908390600080516020610f73833981519152906020016103db565b60008034116108785760405162461bcd60e51b815260206004820152601060248201526f11195c1bdcda5d081c995c5d5a5c995960821b60448201526064016102cf565b6001600160a01b0382166108c75760405162461bcd60e51b8152602060048201526016602482015275496e76616c696420646f63746f72206164647265737360501b60448201526064016102cf565b336001600160a01b0383160361092d5760405162461bcd60e51b815260206004820152602560248201527f43616e6e6f7420626f6f6b206170706f696e746d656e74207769746820796f756044820152643939b2b63360d91b60648201526084016102cf565b604080516080810182523381526001600160a01b0384811660208084019182523484860190815260006060860181815260028054835260019485905297909120865181549087166001600160a01b0319918216178255945181850180549190971695169490941790945551948201949094559051600382018054939492939192909160ff1916908360058111156109c6576109c6610e2e565b0217905550506002546040513481526001600160a01b03851692503391907facb872fcf123b50205564145b9e085c652fa06f3d23ae78b288f5aa8cfaaccc39060200160405180910390a460028054906000610a2183610f1f565b9091555092915050565b60606000805b600254811015610ad1576000818152600160205260409020546001600160a01b038581169116148015610ab6575060008181526001602052604081206003015460ff166005811115610a8557610a85610e2e565b1480610ab65750600160008281526001602052604090206003015460ff166005811115610ab457610ab4610e2e565b145b15610ac95781610ac581610f1f565b9250505b600101610a31565b5060008167ffffffffffffffff811115610aed57610aed610f46565b604051908082528060200260200182016040528015610b16578160200160208202803683370190505b5090506000805b600254811015610bdb576000818152600160205260409020546001600160a01b038781169116148015610ba2575060008181526001602052604081206003015460ff166005811115610b7157610b71610e2e565b1480610ba25750600160008281526001602052604090206003015460ff166005811115610ba057610ba0610e2e565b145b15610bd35780838381518110610bba57610bba610f5c565b602090810291909101015281610bcf81610f1f565b9250505b600101610b1d565b5090949350505050565b600081815260016020526040902080546001600160a01b0316331480610c17575060018101546001600160a01b031633145b610c525760405162461bcd60e51b815260206004820152600c60248201526b155b985d5d1a1bdc9a5e995960a21b60448201526064016102cf565b6000600382015460ff166005811115610c6d57610c6d610e2e565b1480610c9157506001600382015460ff166005811115610c8f57610c8f610e2e565b145b610cad5760405162461bcd60e51b81526004016102cf90610ef7565b60038101805460ff1916600517905560405182907f1d8abe5d51473b6bf06515119a8b9d4c4480226747f3421b6a33fe1f9cdc611290600090a25050565b6000818152600160208190526040909120908101546001600160a01b03163314610d575760405162461bcd60e51b815260206004820152601760248201527f4f6e6c7920646f63746f722063616e20636f6e6669726d00000000000000000060448201526064016102cf565b6000600382015460ff166005811115610d7257610d72610e2e565b14610d8f5760405162461bcd60e51b81526004016102cf90610ef7565b60038101805460ff1916600117905560405182907f31b574c71982839b50b1f27014bd878e5d09df2523fd4ea5d288148a7c6479d990600090a25050565b600060208284031215610ddf57600080fd5b5035919050565b6001600160a01b0381168114610dfb57600080fd5b50565b60008060408385031215610e1157600080fd5b823591506020830135610e2381610de6565b809150509250929050565b634e487b7160e01b600052602160045260246000fd5b6001600160a01b03858116825284166020820152604081018390526080810160068310610e8157634e487b7160e01b600052602160045260246000fd5b82606083015295945050505050565b600060208284031215610ea257600080fd5b8135610ead81610de6565b9392505050565b602080825282518282018190526000918401906040840190835b81811015610eec578351835260209384019390920191600101610ece565b509095945050505050565b6020808252600e908201526d496e76616c69642073746174757360901b604082015260600190565b600060018201610f3f57634e487b7160e01b600052601160045260246000fd5b5060010190565b634e487b7160e01b600052604160045260246000fd5b634e487b7160e01b600052603260045260246000fdfe6e3c6096795c8298a218b2cfb8bde42726ff7c9a3d27b4d3ba41ab7f74feb5fba26469706673582212203ee05ba4a350dcc4243f38d9ffe661f13ca97430beb010b6e54bba988aaaa47f64736f6c634300081c0033",
  "linkReferences": {},
  "deployedLinkReferences": {}
}