{
  "_format": "hh-sol-artifact-1",
  "contractName": "InstaDocHub",
  "sourceName": "contracts/InstaDocHub.sol",
  "abi": [
    {
      "inputs": [
        {
          "internalType": "address",
          "name": "doctorRegistryAddr",
          "type": "address"
        },
        {
          "internalType": "address",
          "name": "consentRegistryAddr",
          "type": "address"
        },
        {
          "internalType": "address",
          "name": "escrowAddr",
          "type": "address"
        },
        {
          "internalType": "address",
          "name": "patientRecordsAddr",
          "type": "address"
        }
      ],
      "stateMutability": "nonpayable",
      "type": "constructor"
    },
    {
      "anonymous": false,
      "inputs": [
        {
          "indexed": true,
          "internalType": "address",
          "name": "patient",
          "type": "address"
        }
      ],
      "name": "PatientRegistered",
      "type": "event"
    },
    {
      "inputs": [
        {
          "internalType": "address",
          "name": "patient",
          "type": "address"
        },
        {
          "internalType": "string",
          "name": "description",
          "type": "string"
        },
        {
          "internalType": "string",
          "name": "recordCID",
          "type": "string"
        }
      ],
      "name": "addRecordForPatient",
      "outputs": [],
      "stateMutability": "nonpayable",
      "type": "function"
    },
    {
      "inputs": [],
      "name": "consentRegistry",
      "outputs": [
        {
          "internalType": "contract ConsentRegistry",
          "name": "",
          "type": "address"
        }
      ],
      "stateMutability": "view",
      "type": "function"
    },
    {
      "inputs": [],
      "name": "doctorRegistry",
      "outputs": [
        {
          "internalType": "contract DoctorRegistry",
          "name": "",
          "type": "address"
        }
      ],
      "stateMutability": "view",
      "type": "function"
    },
    {
      "inputs": [],
      "name": "escrow",
      "outputs": [
        {
          "internalType": "contract EscrowPayments",
          "name": "",
          "type": "address"
        }
      ],
      "stateMutability": "view",
      "type": "function"
    },
    {
      "inputs": [
        {
          "internalType": "address",
          "name": "doctor",
          "type": "address"
        }
      ],
      "name": "isDoctorVerified",
      "outputs": [
        {
          "internalType": "bool",
          "name": "",
          "type": "bool"
        }
      ],
      "stateMutability": "view",
      "type": "function"
    },
    {
      "inputs": [],
      "name": "patientRecords",
      "outputs": [
        {
          "internalType": "contract PatientRecords",
          "name": "",
          "type": "address"
        }
      ],
      "stateMutability": "view",
      "type": "function"
    },
    {
      "inputs": [],
      "name": "registerPatient",
      "outputs": [],
      "stateMutability": "nonpayable",
      "type": "function"
    },
    {
      "inputs": [
        {
          "internalType": "address",
          "name": "",
          "type": "address"
        }
      ],
      "name": "registeredPatients",
      "outputs": [
        {
          "internalType": "bool",
          "name": "",
          "type": "bool"
        }
      ],
      "stateMutability": "view",
      "type": "function"
    },
    {
      "inputs": [],
      "name": "viewMyRecords",
      "outputs": [
        {
          "components": [
            {
              "internalType": "address",
              "name": "doctor",
              "type": "address"
            },
            {
              "internalType": "string",
              "name": "description",
              "type": "string"
            },
            {
              "internalType": "string",
              "name": "ipfsHash",
              "type": "string"
            },
            {
              "internalType": "uint256",
              "name": "timestamp",
              "type": "uint256"
            }
          ],
          "internalType": "struct PatientRecords.Record[]",
          "name": "",
          "type": "tuple[]"
        }
      ],
      "stateMutability": "view",
      "type": "function"
    }
  ],
  "bytecode": "0x608060405234801561001057600080fd5b50604051610d55380380610d5583398101604081905261002f9161009e565b600080546001600160a01b039586166001600160a01b03199182161790915560018054948616948216949094179093556002805492851692841692909217909155600380549190931691161790556100f2565b80516001600160a01b038116811461009957600080fd5b919050565b600080600080608085870312156100b457600080fd5b6100bd85610082565b93506100cb60208601610082565b92506100d960408601610082565b91506100e760608601610082565b905092959194509250565b610c54806101016000396000f3fe608060405234801561001057600080fd5b50600436106100935760003560e01c80638c691a4b116100665780638c691a4b146101085780639cdaaad81461011d578063db89cf5b14610140578063e2fdcc1714610153578063f15b0feb1461016657600080fd5b80630b13acdf1461009857806364e2559e146100c0578063822d3885146100eb57806382cfb2ff146100f5575b600080fd5b6100ab6100a6366004610679565b610179565b60405190151581526020015b60405180910390f35b6003546100d3906001600160a01b031681565b6040516001600160a01b0390911681526020016100b7565b6100f36101ee565b005b6000546100d3906001600160a01b031681565b61011061028a565b6040516100b791906106ed565b6100ab61012b366004610679565b60046020526000908152604090205460ff1681565b6001546100d3906001600160a01b031681565b6002546100d3906001600160a01b031681565b6100f36101743660046107e1565b610352565b6000805460405163b9209e3360e01b81526001600160a01b0384811660048301529091169063b9209e3390602401602060405180830381865afa1580156101c4573d6000803e3d6000fd5b505050506040513d601f19601f820116820180604052508101906101e8919061087c565b92915050565b3360009081526004602052604090205460ff16156102485760405162461bcd60e51b8152602060048201526012602482015271105b1c9958591e48149959da5cdd195c995960721b60448201526064015b60405180910390fd5b33600081815260046020526040808220805460ff19166001179055517fc9fa2003fca4ce0dfc8cb0deae32266b715536df6685365b05b5be96ede8e49c9190a2565b3360009081526004602052604090205460609060ff166102dd5760405162461bcd60e51b815260206004820152600e60248201526d139bdd08149959da5cdd195c995960921b604482015260640161023f565b600354604051632801dba160e21b81523360048201526001600160a01b039091169063a0076e8490602401600060405180830381865afa158015610325573d6000803e3d6000fd5b505050506040513d6000823e601f3d908101601f1916820160405261034d9190810190610992565b905090565b60005460405163b9209e3360e01b81523360048201526001600160a01b039091169063b9209e3390602401602060405180830381865afa15801561039a573d6000803e3d6000fd5b505050506040513d601f19601f820116820180604052508101906103be919061087c565b6104005760405162461bcd60e51b8152602060048201526013602482015272111bd8dd1bdc881b9bdd081d995c9a599a5959606a1b604482015260640161023f565b6001600160a01b03851660009081526004602052604090205460ff166104615760405162461bcd60e51b815260206004820152601660248201527514185d1a595b9d081b9bdd081c9959da5cdd195c995960521b604482015260640161023f565b6000805b600160009054906101000a90046001600160a01b03166001600160a01b0316632cd5db476040518163ffffffff1660e01b8152600401602060405180830381865afa1580156104b8573d6000803e3d6000fd5b505050506040513d601f19601f820116820180604052508101906104dc9190610ae8565b8110156105ad57600154604051633d0704d560e11b8152600481018390526000916001600160a01b031690637a0e09aa90602401600060405180830381865afa15801561052d573d6000803e3d6000fd5b505050506040513d6000823e601f3d908101601f191682016040526105559190810190610b01565b9050876001600160a01b031681600001516001600160a01b0316148015610588575060208101516001600160a01b031633145b8015610595575080608001515b156105a45760019250506105ad565b50600101610465565b50806105ef5760405162461bcd60e51b8152602060048201526011602482015270139bc81058dd1a5d994810dbdb9cd95b9d607a1b604482015260640161023f565b60035460405163d47b41d560e01b81526001600160a01b039091169063d47b41d5906106279089908990899089908990600401610bda565b600060405180830381600087803b15801561064157600080fd5b505af1158015610655573d6000803e3d6000fd5b50505050505050505050565b6001600160a01b038116811461067657600080fd5b50565b60006020828403121561068b57600080fd5b813561069681610661565b9392505050565b60005b838110156106b85781810151838201526020016106a0565b50506000910152565b600081518084526106d981602086016020860161069d565b601f01601f19169290920160200192915050565b6000602082016020835280845180835260408501915060408160051b86010192506020860160005b8281101561078d57868503603f19018452815180516001600160a01b03168652602080820151608091880182905290610750908801826106c1565b90506040820151878203604089015261076982826106c1565b60609384015198909301979097525094506020938401939190910190600101610715565b50929695505050505050565b60008083601f8401126107ab57600080fd5b5081356001600160401b038111156107c257600080fd5b6020830191508360208285010111156107da57600080fd5b9250929050565b6000806000806000606086880312156107f957600080fd5b853561080481610661565b945060208601356001600160401b0381111561081f57600080fd5b61082b88828901610799565b90955093505060408601356001600160401b0381111561084a57600080fd5b61085688828901610799565b969995985093965092949392505050565b8051801515811461087757600080fd5b919050565b60006020828403121561088e57600080fd5b61069682610867565b634e487b7160e01b600052604160045260246000fd5b604051608081016001600160401b03811182821017156108cf576108cf610897565b60405290565b60405160a081016001600160401b03811182821017156108cf576108cf610897565b604051601f8201601f191681016001600160401b038111828210171561091f5761091f610897565b604052919050565b600082601f83011261093857600080fd5b81516001600160401b0381111561095157610951610897565b610964601f8201601f19166020016108f7565b81815284602083860101111561097957600080fd5b61098a82602083016020870161069d565b949350505050565b6000602082840312156109a457600080fd5b81516001600160401b038111156109ba57600080fd5b8201601f810184136109cb57600080fd5b80516001600160401b038111156109e4576109e4610897565b8060051b6109f4602082016108f7565b91825260208184018101929081019087841115610a1057600080fd5b6020850192505b83831015610add5782516001600160401b03811115610a3557600080fd5b85016080818a03601f19011215610a4b57600080fd5b610a536108ad565b6020820151610a6181610661565b815260408201516001600160401b03811115610a7c57600080fd5b610a8b8b602083860101610927565b60208301525060608201516001600160401b03811115610aaa57600080fd5b610ab98b602083860101610927565b60408301525060809190910151606082015282526020928301929190910190610a17565b979650505050505050565b600060208284031215610afa57600080fd5b5051919050565b600060208284031215610b1357600080fd5b81516001600160401b03811115610b2957600080fd5b820160a08185031215610b3b57600080fd5b610b436108d5565b8151610b4e81610661565b81526020820151610b5e81610661565b602082015260408201516001600160401b03811115610b7c57600080fd5b610b8886828501610927565b60408301525060608281015190820152610ba460808301610867565b6080820152949350505050565b81835281816020850137506000828201602090810191909152601f909101601f19169091010190565b6001600160a01b0386168152606060208201819052600090610bff9083018688610bb1565b8281036040840152610c12818587610bb1565b9897505050505050505056fea2646970667358221220281ee18ffd1114043feb4bfc3018cf05737a6fcb7c47a2a256ad061e8c9c51b664736f6c634300081c0033",
  "linkReferences": {},
  "deployedLinkReferences": {}
}