{
  "_format": "hh-sol-artifact-1",
  "contractName": "PatientRecords",
  "sourceName": "contracts/PatientRecords.sol",
  "abi": [
    {
      "anonymous": false,
      "inputs": [
        {
          "indexed": true,
          "internalType": "address",
          "name": "patient",
          "type": "address"
        },
        {
          "indexed": true,
          "internalType": "address",
          "name": "doctor",
          "type": "address"
        },
        {
          "indexed": false,
          "internalType": "string",
          "name": "description",
          "type": "string"
        },
        {
          "indexed": false,
          "internalType": "string",
          "name": "ipfsHash",
          "type": "string"
        },
        {
          "indexed": false,
          "internalType": "uint256",
          "name": "timestamp",
          "type": "uint256"
        }
      ],
      "name": "RecordAdded",
      "type": "event"
    },
    {
      "inputs": [
        {
          "internalType": "address",
          "name": "patient",
          "type": "address"
        },
        {
          "internalType": "string",
          "name": "description",
          "type": "string"
        },
        {
          "internalType": "string",
          "name": "ipfsHash",
          "type": "string"
        }
      ],
      "name": "addRecord",
      "outputs": [],
      "stateMutability": "nonpayable",
      "type": "function"
    },
    {
      "inputs": [
        {
          "internalType": "address",
          "name": "patient",
          "type": "address"
        }
      ],
      "name": "getRecords",
      "outputs": [
        {
          "components": [
            {
              "internalType": "address",
              "name": "doctor",
              "type": "address"
            },
            {
              "internalType": "string",
              "name": "description",
              "type": "string"
            },
            {
              "internalType": "string",
              "name": "ipfsHash",
              "type": "string"
            },
            {
              "internalType": "uint256",
              "name": "timestamp",
              "type": "uint256"
            }
          ],
          "internalType": "struct PatientRecords.Record[]",
          "name": "",
          "type": "tuple[]"
        }
      ],
      "stateMutability": "view",
      "type": "function"
    }
  ],
  "bytecode": "0x6080604052348015600f57600080fd5b506107218061001f6000396000f3fe608060405234801561001057600080fd5b50600436106100365760003560e01c8063a0076e841461003b578063d47b41d514610064575b600080fd5b61004e61004936600461033b565b610079565b60405161005b91906103a3565b60405180910390f35b6100776100723660046104f4565b610230565b005b6001600160a01b038116600090815260208181526040808320805482518185028101850190935280835260609492939192909184015b8282101561022557600084815260209081902060408051608081019091526004850290910180546001600160a01b0316825260018101805492939192918401916100f89061056d565b80601f01602080910402602001604051908101604052809291908181526020018280546101249061056d565b80156101715780601f1061014657610100808354040283529160200191610171565b820191906000526020600020905b81548152906001019060200180831161015457829003601f168201915b5050505050815260200160028201805461018a9061056d565b80601f01602080910402602001604051908101604052809291908181526020018280546101b69061056d565b80156102035780601f106101d857610100808354040283529160200191610203565b820191906000526020600020905b8154815290600101906020018083116101e657829003601f168201915b50505050508152602001600382015481525050815260200190600101906100af565b505050509050919050565b6040805160808101825233815260208082018581528284018590524260608401526001600160a01b03878116600090815280845294852080546001808201835591875293909520845160049094020180546001600160a01b031916939091169290921782555191928392908201906102a890826105f6565b50604082015160028201906102bd90826105f6565b50606082015181600301555050336001600160a01b0316846001600160a01b03167fd0d0c8602a21a7fc26feb87fd77a4716f793b2de5a35e4699d2a2402fd9e8db0858542604051610311939291906106b5565b60405180910390a350505050565b80356001600160a01b038116811461033657600080fd5b919050565b60006020828403121561034d57600080fd5b6103568261031f565b9392505050565b6000815180845260005b8181101561038357602081850181015186830182015201610367565b506000602082860101526020601f19601f83011685010191505092915050565b6000602082016020835280845180835260408501915060408160051b86010192506020860160005b8281101561044357868503603f19018452815180516001600160a01b031686526020808201516080918801829052906104069088018261035d565b90506040820151878203604089015261041f828261035d565b606093840151989093019790975250945060209384019391909101906001016103cb565b50929695505050505050565b634e487b7160e01b600052604160045260246000fd5b600082601f83011261047657600080fd5b813567ffffffffffffffff8111156104905761049061044f565b604051601f8201601f19908116603f0116810167ffffffffffffffff811182821017156104bf576104bf61044f565b6040528181528382016020018510156104d757600080fd5b816020850160208301376000918101602001919091529392505050565b60008060006060848603121561050957600080fd5b6105128461031f565b9250602084013567ffffffffffffffff81111561052e57600080fd5b61053a86828701610465565b925050604084013567ffffffffffffffff81111561055757600080fd5b61056386828701610465565b9150509250925092565b600181811c9082168061058157607f821691505b6020821081036105a157634e487b7160e01b600052602260045260246000fd5b50919050565b601f8211156105f157806000526020600020601f840160051c810160208510156105ce5750805b601f840160051c820191505b818110156105ee57600081556001016105da565b50505b505050565b815167ffffffffffffffff8111156106105761061061044f565b6106248161061e845461056d565b846105a7565b6020601f82116001811461065857600083156106405750848201515b600019600385901b1c1916600184901b1784556105ee565b600084815260208120601f198516915b828110156106885787850151825560209485019460019092019101610668565b50848210156106a65786840151600019600387901b60f8161c191681555b50505050600190811b01905550565b6060815260006106c8606083018661035d565b82810360208401526106da818661035d565b91505082604083015294935050505056fea26469706673582212205137f86d33a5d93643bbb1cccfbaa07bd685e01268da1528a807511529b40c4464736f6c634300081c0033",
  "linkReferences": {},
  "deployedLinkReferences": {}
}